:020000041004E6
:1000000000600020C97E0410F368041091530410AE
:10001000AA5555AA000000000000000000000000E2
:10002000000000000000000000000000659C0410BB
:1000300000000000000000002F6A0410D59E04108C
:1000400097350410156A041000000000000000003D
:1000500085A404104B9C04108D190410D5A704101E
:100060000000000000000000000000000000000090
:100070000000000041090410E3530410E153041090
:1000800000000000F1670410F3670410F567041026
:10009000F7670410F77E041000000000E52104104B
:1000A0000000000000000000000000000000000050
:1000B0000000000000000000000000000000000040
:1000C00000F002F800F073F80CA030C808382418CB
:1000D0002D18A246671EAB4654465D46AC4201D180
:1000E00000F065F87E460F3E0FCCB646012633423F
:1000F00000D0FB1AA246AB4633431847E8ED000098
:1001000028EE0000103A02D378C878C1FAD8520716
:1001100001D330C830C101D504680C6070470000BD
:100120000023002400250026103A01D378C1FBD813
:10013000520700D330C100D50B607047F0B543467D
:100140004C4655465E466746F8B40A4C6B462360FB
:10015000BFF34F8F30BF074C2468A546F8BC9846C4
:10016000A146AA46B346BC46F0BD00BF30BF00BFA3
:10017000704700006010002010B5642902D100F023
:10018000A1F810BD782902D100F0D2F810BD632982
:1001900002D100F058FB10BD732902D100F05BFBC7
:1001A00010BD002010BD1FB51FBD10B510BD044807
:1001B0008546FFF7F8FF0DF0E7F900F095FB00002A
:1001C0000060002003B4FFF7F0FF03BC00F094FBD5
:1001D00070B505460C46164602E00FCC0FC5103E22
:1001E000102EFAD2082E02D303CC03C5083E042EEB
:1001F00007D301CC01C5361F03E021782970641CA8
:100200006D1C761EF9D270BD0FB4054910B503AA56
:10021000029800F025FB10BC08BC04B01847000091
:10022000D402002070B5044685690068C10601D576
:10023000302600E02026C00707D070BD6268304637
:10024000A1689047206A401C20626D1EF6D570BDE3
:1002500070B5044685690078C00707D170BD626833
:10026000A16820209047206A401C20626D1EF6D5B0
:1002700070BD70B50C460546012A05D02878800669
:1002800000D5EA69002302E0012305E05B1C9342EC
:1002900002D2E05C0028F9D1A869E618C01AA8616A
:1002A000286AC01828622846FFF7BCFF04E06A6885
:1002B0002078A968641C9047B442F8D32846FFF719
:1002C000C7FF70BDF7B5002575291068009914A601
:1002D00011D0C046C046002802DA404211A608E00C
:1002E000009909688A0701D50FA602E0490704D5DD
:1002F0000EA6012501E0C046C046009F0024243719
:1003000004E000F0C1FA30313955641C0028F8D1FE
:100310002B4632462146009800F032FAFEBD00001E
:10032000000000002D0000002B0000002000000055
:1003300070B504460D4621461068C046C046218867
:10034000090502D50F4A7A4402E00E4A7A440E3279
:1003500023460021243305E006070009360F965D89
:100360005E54491C0028F7D120780023000705D5EA
:10037000702D03D0002901D002231132204600F055
:10038000FFF970BD5EEB0000F3B50446002081B0BC
:1003900020622046E168884700287DD0252802D0C9
:1003A0006268A16883E0454F00257F442046E168EC
:1003B00088472028064608DB312E06D2B819203897
:1003C0000078002801D00543F0E7A80701D50420F4
:1003D00085430020E0610746A0612A2E0AD03046FE
:1003E0000AF094FE002827D0B8000019303E009093
:1003F000866119E00298BA00121902C89161029050
:100400002046E1688847012F064617D1E069002899
:100410001FDA202085431CE000980A2180694843A8
:1004200000998019303888612046E168884706467F
:100430000AF06CFE0028EFD1012F0AD02E2E08D131
:100440002046E16888470646202005437F1C022F8E
:10045000C3DBA069002803DA4042A0610120054304
:10046000E80701D010208543002E24D030464138C3
:10047000192803D80120C0020543203620462560F4
:100480003146029A1546FFF777FE00280CD0012866
:1004900007D0ED1DE80800E00DE0C0000830029034
:1004A00077E72D1D029574E762683046A168904792
:1004B000206A401C6CE7206AFEBD000022EB0000B1
:1004C000034610B50B439B070FD1042A0DD308C870
:1004D00010C9121FA342F8D018BA21BA884201D914
:1004E000012010BD0020C04310BD002A03D0D30757
:1004F00003D0521C07E0002010BD03780C78401C8C
:10050000491C1B1B07D103780C78401C491C1B1B82
:1005100001D1921EF1D1184610BD10B5044600F06D
:1005200002F8204610BDF8B5042A2CD3830712D058
:100530000B78491C0370401C521E83070BD00B78AC
:10054000491C0370401C521E830704D00B78491CC1
:100550000370401C521E8B079B0F05D0C91ADF0089
:100560002023DE1B08C90AE0FFF732FEF8BD1D4656
:1005700008C9FD401C46B4402C4310C0121F042A79
:10058000F5D2F308C91A521EF0D40B78491C037037
:10059000401C521EEAD40B78491C0370401C012AEF
:1005A000E4D409780170F8BD134610B50446CAB208
:1005B00019461002821810048218204600F00FF825
:1005C000204610BD01E004C0091F0429FBD28B079F
:1005D00001D50280801CC90700D002707047002935
:1005E0000BD0C30702D00270401C491E022904D35D
:1005F000830702D50280801C891EE3E70022EEE714
:100600000022DFE70378C2781946437812061B02FE
:1006100019438378C0781B04194311430902090A5E
:10062000000608437047002203098B422CD3030ABB
:100630008B4211D300239C464EE003460B433CD42F
:10064000002243088B4231D303098B421CD3030A97
:100650008B4201D394463FE0C3098B4201D3CB01C7
:10066000C01A524183098B4201D38B01C01A5241F7
:1006700043098B4201D34B01C01A524103098B42FB
:1006800001D30B01C01A5241C3088B4201D3CB00E6
:10069000C01A524183088B4201D38B00C01A5241C9
:1006A00043088B4201D34B00C01A5241411A00D279
:1006B00001465241104670475DE0CA0F00D04942E2
:1006C000031000D34042534000229C4603098B4252
:1006D0002DD3030A8B4212D3FC22890112BA030ADA
:1006E0008B420CD3890192118B4208D3890192115C
:1006F0008B4204D389013AD0921100E08909C309E1
:100700008B4201D3CB01C01A524183098B4201D3E2
:100710008B01C01A524143098B4201D34B01C01ACD
:10072000524103098B4201D30B01C01A5241C30845
:100730008B4201D3CB00C01A524183088B4201D3B4
:100740008B00C01A5241D9D243088B4201D34B00CF
:10075000C01A5241411A00D20146634652415B1011
:10076000104601D34042002B00D5494270476346F2
:100770005B1000D3404201B50020C046C04602BD18
:10078000FFB504460D4681B02430009021688806EC
:1007900004D51022E0699143216000E00120A842C5
:1007A00001DD471B00E000270498A1697A191018A1
:1007B000081AA0612078C00602D42046FFF732FD57
:1007C000002608E003986268A168805D9047206A6F
:1007D000401C761C206204988642F3DB2078C00619
:1007E0000AD52046FFF71EFD06E06268A1683020AA
:1007F0009047206A401C206238467F1E0028F4DCA7
:1008000007E000986268A168405D9047206A401C3C
:10081000206228466D1E0028F3DC2046FFF718FDF5
:100820002078000602D5022005B0F0BD0120FBE7CC
:1008300010B54369002B02D0C046C04601E0FFF767
:1008400018FD012010BD1278014624310A700022E3
:100850004A700122ECE711680022D243E8E7000069
:10086000084B70B50D467B4400F027F80446284637
:1008700000F036F8002802D00020C04370BD2046AA
:1008800070BD0000A7BD000001468008081A0209DB
:100890001018020A1018020C1018C0088200121852
:1008A0005200891A01E0401C0A390A29FBD270471C
:1008B00001694A1C02610878704700B58FB0029147
:1008C0000021059105490193794403911146049053
:1008D0006846FFF759FD0FB000BD0000E5FFFFFFC0
:1008E000C06880210840704710B50446C046C04625
:1008F0002046FFF767FC10BD01491820ABBEFEE79C
:1009000026000200704730B58C180278401C13078F
:100910001B0F01D10378401C120906D10278401C3C
:1009200003E00578401C0D70491C5B1EF9D101E005
:100930000B70491C521EFBD1A142E6D3002030BDF2
:100940007047000010B5054C6068800705D505F0BC
:1009500053FF606802218843606010BDD802002008
:10096000FFB5002083B00F46012500903FE0039EB5
:10097000B868B4684119022201A8083606F04FF899
:1009800068468088218D814207D22168B14204D017
:100990000A8D82420FD80C46F4E72168B1420AD191
:1009A0002146226A20318A4203D0636A9B8B8342AC
:1009B00024D38A4222D0218D814216D002AA214618
:1009C00009F0F4F9012810D102992620405C400773
:1009D0000BD500981C31420006981018022206F030
:1009E0001EF80098401C80B20090AD1CADB2B889D2
:1009F000401EA842BBDC0C980099018007B0F0BDF6
:100A0000FFB585B000210191014608310091119F89
:100A10008468208DB84208D220680099884204D0AA
:100A2000018DB94210D80446F3E72168009881424D
:100A30000AD12046216A2030814203D0626A928B1B
:100A4000BA4224D3814222D00F980C300290208DDC
:100A5000B84213D31299884210D8214602222A3173
:100A6000029805F0DCFF102210990F9805F0D3FFD3
:100A7000002809D0218D1298814208D02646256A87
:100A80002036B5423ED13FE00E990020088009B0E3
:100A9000F0BDA88BB84234D312998842F7D82846C3
:100AA00020300390C078012808D028460830102252
:100AB000109905F0B0FF002808D022E02946022254
:100AC0000831029805F0ABFF0F98F0E703988079A2
:100AD000400716D50198002801D1E88B0190E98BD9
:100AE0008142D4D10E98022200884100089808184B
:100AF00029461C3105F093FF0E980E990088401C82
:100B000008802D68B542C4D1246800988442BED0C4
:100B1000208D129988429AD9B9E70000F0B5724D3C
:100B20000646287B714F85B00C46C00708D1304679
:100B300004F096FD2146304602F0D0FABE4220D0A5
:100B4000601C6B4B802E78D01DDC012E51D0042E02
:100B500043D0082E35D0402E13D19978090710D5EF
:100B6000E179A279090211430091617922790B029E
:100B700041780078090213430143E27820780CF0B1
:100B80005DF805B0F0BD01218902711A73D01F22F2
:100B90009202891A7AD00120C003081A6AD0B8429A
:100BA000EFD1187A22468006EBD5587A0007E8D5AF
:100BB000D0789378010250781943221D0CF032F856
:100BC000DFE75978C906DCD541780078090201438E
:100BD000E27820780BF0F0FFD3E759780906D0D5FA
:100BE0004178007809020143E27820780CF008F897
:100BF000C7E7187A8006C4D5587AC007C1D0607C90
:100C0000217C00020843E17BA27B09021143627B45
:100C1000257BA37C120203902A43A01D049301921A
:100C200002910090E078A578010263792279294346
:100C300060780BF0E9FFA4E7FFE7187A8006A0D5FB
:100C4000587A40079DD5607A217A000208430090C7
:100C5000E079A179030260790B4321790202E078FF
:100C60000A43A5780102294360780BF0D9FF88E791
:100C700001E00BE020E09979090682D541780078FF
:100C80000902014320780BF0BCFF7AE7297BC907F2
:100C900096D01A7A2146920692D55A7AD2068FD5E4
:100CA0000B7BCC7A1A022243437804781802204343
:100CB000C91C0BF0B6FF64E7187A80068CD5587A09
:100CC000800789D5A51C09222946684605F0A7FE9C
:100CD000093568460395007A295C68460174607896
:100CE00069460BF08FFF4CE7E01E0020000001007A
:100CF000041A002010B514220021074805F093FEC5
:100D000005484060014600600831C16081600121F2
:100D10000174002010BD0000C01C0020F8B5234D58
:100D2000287C01283FD172B6204C0834264612E0B8
:100D30003946304605F04CFD62B63946102004F0C5
:100D40006DFC002806D072B63946204605F01AFD23
:100D50003C4662B672B6276862B6B74272B6E7D151
:100D6000124F0FE02146202004F058FC45281BD0EC
:100D700072B621460D4805F02BFD204605F07AF9A4
:100D800062B672B63C6862B6AC42EBD172B6A86885
:100D9000B04207D12868A84204D10548082201784A
:100DA0001143017062B6F8BD2746EAE7C01C002077
:100DB0006803002010B50146014805F0EAFC10BDAB
:100DC000C01C002010B572B605F066F9452802D0A7
:100DD00062B6412010BD0CF099FE62B6002010BD35
:100DE00010B50146014805F0D4FC10BDC81C002018
:100DF000F0B52BA00FC893B006AC0FC42CA00FC841
:100E00000FC42FA00FC80FC4102206A9304805F048
:100E100006FE304C062301222D49022000940AF0E0
:100E20002EFB00282FD12A4810220AA9103005F0E5
:100E3000F6FD10260027A01C0125254A00960396E2
:100E400002970197049505901423103202212088FF
:100E50000AF0F6FA002816D11D4810220EA910300B
:100E600005F0DDFD201D05900C20194A0295039622
:100E700004950197009014231032022120880AF073
:100E8000DFFA002805D014A0FFF7BEF9472013B001
:100E9000F0BDA288618819A0FFF7B6F90020F6E737
:100EA000669A0C200008969EE2119EB1E0F273D97A
:100EB000669A0C200008969EE2119EB1E1F273D969
:100EC000669A0C200008969EE2119EB1E2F273D958
:100ED00064100020E40200204572726F722077686F
:100EE000696C6520616464696E6720436861742081
:100EF000736572766963652E0A0000004368617449
:100F000020536572766963652061646465642E0AA6
:100F1000545820436861722048616E646C652025D6
:100F20003034582C20525820436861722048616E3A
:100F3000646C6520253034580A0000000320704797
:100F4000F8B50E46089D06990446002A25D0002BC8
:100F500023D09A4221D8A078C01FA8421DDBF06898
:100F600006278771C271120A027243721A0A8272CC
:100F7000C172090A01732A460D30079905F04FFD29
:100F8000ED1D75812121A0698901084380218843D5
:100F9000A0610720A0750020F8BD4220F8BD30B543
:100FA000002A18D0002B16D09A4214D8CC680425F9
:100FB000A571E271120A227263721A0AA2720522E4
:100FC0004A81212381699B011943802399438161CF
:100FD0008275002030BD422030BD30B5002A15D0CA
:100FE000CC680C25A571E271120A227263721A0A8A
:100FF000A27205224A812122816992011143802235
:10100000914381610D218175002030BD422030BDAA
:1010100070B50C4608990546002A11D0002B0FD058
:101020009A420DD8E06810268671C271120A0272C7
:1010300043721A0A8272801D012903D002290AD044
:10104000422070BD6946098A41716946098A090AC8
:101050008171072005E0102204A9401D05F0DFFC86
:10106000152060812121A8698901084380218843D6
:10107000A8611120A875002070BD70B50C460899B4
:101080000546002A11D0002B0FD09A420DD8E068F7
:1010900008268671C271120A027243721A0A82729B
:1010A000801D012903D002290AD0422070BD694663
:1010B000098A41716946098A090A8171072005E098
:1010C000102204A9401D05F0AAFC152060812121F1
:1010D000A8698901084380218843A8610920A8756F
:1010E000002070BD70B50E460E4915468A88521C08
:1010F000904209D1002404E0295D0BA0FFF784F899
:10110000641CB442F8DB70BD4988891C8842FAD15E
:1011100028780128F7D105480168042211430160AD
:1011200070BD0000E402002025630000DC02002006
:1011300010B508F0ABFF0748007BC00707D1FFF7E9
:10114000EDFD02F04DF902F0ADFE08F0D9FA00F025
:10115000BDFB10BDE01E0020F7B5FF48FFB0808842
:101160008BB00190FD4800684C902022FC494DA8AE
:10117000FFF72EF8FB48006A4B90FB48006A4A9044
:101180000120800701684991416848918168479131
:10119000C1684691016945914169449181694391D2
:1011A000C1694291C16A4191006B4090EF4840682B
:1011B0003F90EF48C0683E90ED48007F3D90EC487E
:1011C000203080883C90EA482030007A3B90E84804
:1011D0002030007B3A90E648006B3990E44820309C
:1011E000007D3890E2482030008B3790E048403056
:1011F000007A3690DE484030007C3590DC48403044
:10120000007D3490DA484030007E3390D84840303A
:10121000007F3290D648603000783190D548016820
:10122000309141682F91017C2E91017D2D91D14902
:1012300020310A792C920A892B92C06A2A90088A56
:1012400000222990CC48110508180568910075AB5B
:101250005D50456877AC6550868B79AD6E50068CD5
:101260007BAD6E50868C7DAD6E50068D7FAD6E5021
:10127000C66A81AD6E504C252E5A83AD6E50066DF8
:1012800085AD6E50856D521C87A8D2B24550022A9A
:10129000D8D30B20000700682890B848016927912F
:1012A00040692690B6484168259181682491018A59
:1012B0002391818A229181692191017F2091B049F6
:1012C0002031098A1F91416B1E91816B1D91C06B6A
:1012D0001C90AB48403001681B9141681A918168AD
:1012E0001991C168189100691790A64881881691D4
:1012F00001891591017C1491017D1391018B12914B
:10130000007F1190A0488188109101890F91017C84
:101310000E91017D0D91018B0C91007F0B909B48EC
:1013200001680A91007A0990994800680890994DDF
:1013300000206DAE1421414349190B688200B3505F
:101340004C6855AB9C508C685DAB9C50C968401C88
:1013500065ABC0B299500828ECD38120C005018844
:10136000079141680691017B059181690491416A69
:101370000391806A02908A98032806D10920C0064A
:101380004168032212071143416083490020096824
:10139000824C28390091824F216004C98300401C8F
:1013A000FA50C0B221600A28F7D3012008F0F2FDFC
:1013B0007C4900200870FEF7C1FE7A4800780028BA
:1013C0007ED0794801210183002383810361009944
:1013D0001846216081007A58216804C1401CC0B2BF
:1013E00021600A28F6D371480370032101715A491C
:1013F0000198888059494C98086020224DA9584886
:10140000FEF7E6FE57484B99016257494A98086231
:101410008B0248985860479898604698D8604598DD
:10142000186144985861439898614298D8614198EE
:10143000D862409818634D493F98486049981860B1
:101440004B493E98C8603D98087749483C9A2030FF
:1014500082803B9A02723A9A0273399A0A633899E7
:1014600001753799018342483699403001723599A8
:1014700001743499017533990176329901773C49A9
:101480003198603108703B48309901602F99416074
:101490002E9901742D99017536492C9A20310A71C3
:1014A0002B9A0A812A9AC26229980882002232481D
:1014B00011050818910075AC6458046077AC00E021
:1014C00006E16458446079AC645A84837BAC645A06
:1014D00004847DAC645A84847FAC645A048581ACF6
:1014E0006458C46283AC645A4C273C5285AC64583F
:1014F000046587AC61588165521CD2B2022AD6D3EA
:101500000B210907289808601C4827990161269932
:1015100041611B482599416024998160239901828A
:10152000229981822199816120990177144A1F991A
:10153000203211821E9941631D9981631C99C163F8
:101540000F481B99403001601A99416019998160D8
:101550001899C16017992BE00000104000E100E0ED
:1015600000E400E000ED00E000009040400000409A
:1015700000003040000040400000A04000E000E0DB
:101580000000F0400000D0400000E040000070404B
:10159000000C7040080000A0000004101C03002094
:1015A000941900205C10002000001048000020402A
:1015B00001614A4816998180159901811499017435
:1015C0001399017512990183119901774448109973
:1015D00081800F9901810E9901740D9901750C9903
:1015E00001830B9901773F480A99016009990172BB
:1015F0003D4908980860002065AF1421414349190E
:101600008200B4580C6055ACA4584C605DACA45832
:101610008C60BA58CA60401CC0B20828EDD3812043
:10162000C0050799018006994160059901730499E5
:10163000816103994162029981622C48007A0028F5
:101640002FD12B48018909292BD30189812928D839
:101650008B99002925D002890921914302D1D969AA
:1016600089051BD402891121914302D1D969490509
:1016700014D402892121914302D1D96909050DD4DD
:1016800002894121914302D1D969C90406D4018953
:101690008120884305D1D869800402D515490120ED
:1016A00008608A98032806D10921C90648680322E0
:1016B0001207904348608C98002802D0002003F065
:1016C00099FD8A98032807D00021002000F092FDA0
:1016D00062B67FB00EB0F0BD0121F6E70000D04049
:1016E0000000E04000007040000C7040000090409E
:1016F0000000104800E200E0FFB581B00746029903
:10170000002622481C46002902D00270029902E0FD
:101710000021017003210171002C0BD0194600201B
:1017200003F04DFD002802D0FE2005B0F0BDFFF70C
:10173000FFFC012672B600F001F905463846FFF7B6
:10174000FDFBB84200D33846854200D22846104BF4
:1017500081005A58521C5A50002806D001280BD03C
:1017600032460299FFF7F8FC0EE062B6002C0BD06F
:10177000002003F03FFD07E0FEF7F7FC002C02D04D
:10178000002003F037FD62B60020CEE700002040C5
:1017900084190020F8B50369C16814C80668A44616
:1017A0000024083855050ED1194D57190525ED03AC
:1017B000AF4208D26644174F761E3E43B618144A0D
:1017C000B218AA4200D30C248A070AD1104A8D18F5
:1017D0000522D203954204D20D4D37354919914265
:1017E00000D30C24990706D1012149078B4202D36B
:1017F00009498B4201D90C2408E0002C06D101468E
:101800004822064805F00BF909F09AFA2046F8BD7F
:101810000000FCEFFF070000FF5F0020BC19002064
:101820000D490E488A7E42730D4AC968116001460F
:10183000002220390A704A708A70E123CB7080231D
:101840000B7102234B71302101724272102181729F
:10185000C172027370470000BC190020E01E002016
:101860006403002010B500F021FD03F0F9FC08F03E
:10187000F1FB04F04BFB04F0E9FB03F0ADFE0F4C71
:101880000F492068401881100E48816761688908F7
:10189000C167A06881080B488030016007F024FD13
:1018A0000948A18A0182E18A4182218BC181FF38E6
:1018B00000218138017601F0D1FD10BDBC19002056
:1018C0000000FCEF3C1E0020AC1C002070B5154849
:1018D000154AC078154B002819D00020144C154E1D
:1018E000014605466069491CA84201D1002801D182
:1018F000B142F6DB2169104D4D432D0C558072B677
:101900005D8062B60CF0B2F80020206170BDFF204F
:10191000E930508072B6588062B6002108460CF05B
:10192000A5F870BDFC19002022030020C000002093
:1019300000001048881300005505000010B50F483E
:101940000F4900780978884303D10E4800780028B1
:1019500001D0002010BD0AF0D7FD044601280BD0AD
:1019600000200BF0DDFE08480178002902D000219C
:1019700001700324204610BD012010BD2203002069
:1019800068030020270300202603002010B505F07F
:10199000C5FA10BD70B51B490F2008701A483822CF
:1019A0000021006805F03FF80020184C184A194D36
:1019B000194B014626683154166831542E6831544B
:1019C0001E683154401C2D28F4DB1448246800683C
:1019D0008466126842661A6802661248104C0180DA
:1019E0000921417105228271C17102720E49418142
:1019F00000F01CF8FF2020706070A070E0701F20C5
:101A0000207170BD3C0300203803002044030020F7
:101A1000480300204C030020500300204003002016
:101A200078030020C00000201C22002010B50349CC
:101A3000034840220AF0B8FC10BD00001C22002020
:101A4000D819002030B585B001250AF0BDFA02464C
:101A50000621002009F059FD040002D0014622A011
:101A600038E00421012009F04CFD09F02DFD0400AF
:101A700002D0014625A02DE02DA0FEF7C5FB04A94C
:101A800002A80191009003AB10220021284609F022
:101A900094FC040002D001462DA01BE035A0FEF707
:101AA000B3FB0AF091FA801D00906846018910236B
:101AB0000022808909F01AFD040002D0014635A0F9
:101AC00008E041A0FEF7A0FBFFF792F9040006D062
:101AD000014648A0FEF798FB204605B030BD4EA059
:101AE000FEF792FB0020F8E753657474696E672077
:101AF00042445F41444452206661696C65643A2007
:101B00003078253032780D0A000000004572726F7F
:101B10007220696E206163695F676174745F696ECA
:101B2000697428293A203078253032780D0A00006F
:101B30006163695F676174745F696E6974282920E5
:101B40002D2D3E20535543434553530D0A000000AD
:101B50004572726F7220696E206163695F676170A0
:101B60005F696E69742829203078253032780D0A33
:101B7000000000006163695F6761705F696E69748E
:101B80002829202D2D3E20535543434553530D0AFC
:101B9000000000004572726F7220696E2047617408
:101BA0007420557064617465206368617261637448
:101BB000657269737469632076616C75652030782D
:101BC000253032780D0A00006163695F67617474C3
:101BD0005F7570646174655F636861725F76616C84
:101BE00075652829202D2D3E2053554343455353D9
:101BF0000D0A00004572726F7220696E20416464A4
:101C00005F436861745F53657276696365203078FD
:101C1000253032780D0A00004164645F43686174C6
:101C20005F536572766963652829202D2D3E205308
:101C30005543434553530D0A0000000070B50D464F
:101C40000B490446084203D186210AA00AF0AAF9EA
:101C5000174E002D05D0012D07D0872105A00AF0D1
:101C6000A1F9306AA043306270BD306A2043FAE7C0
:101C70009F3F0F802E2E5C2E2E5C4C69627261722B
:101C8000795C426C75654E5247315F506572697080
:101C9000685F4472697665725C7372635C426C75EE
:101CA000654E5247315F63726D752E630000000010
:101CB0000000904070B588B016460C4605461022CC
:101CC0000021684604F0AFFE03222146684604F076
:101CD000A6FE002304AA6946284604F037F803222A
:101CE00004A9304604F09BFE08B070BD70B51546DF
:101CF000064608F025FD0446082D0AD1052C08D11A
:101D0000304607F0CDF9002803D0008AC00400D582
:101D10000024204670BD2423184204D0C81F09287F
:101D200003D82032D1710020704761207047000035
:101D3000F8B50E46054600F035FF040018D0FF2127
:101D4000A0694131084213D1800411D40948016CC3
:101D50004030814208D0694604F02DFD012109037D
:101D600000980D43058100E0002030602046F8BD5A
:101D70000020F8BDEC1A0020F1B5FFB093B00124AB
:101D80006002099000200B900F909298BE4D0005C4
:101D9000000D11AA09A901F061F80D9000283CD1AD
:101DA000042011A9099A8B18203BDB7F0B2B03D150
:101DB000521E0992401EF5D1B44F002611A8811978
:101DC000022208A8059104F02AFE6846018CAF485B
:101DD00010AB0EAA083800F0F5FC012820D002282C
:101DE00075D06846008C854200D30546844200D9F0
:101DF0002046044605988078012869D01336099852
:101E0000864201D301200B900998811B042901D33C
:101E10008642D3D3A5427DD90D987FB014B0F0BDD2
:101E20000E9804900B980028EED1049902222831D4
:101E3000059804F0F0FD00281ED104982030017BA5
:101E400005988078814217D1012808D10498059916
:101E500002220830C91C04F0DEFD002814D00598C9
:101E60008078022808D10498059910220830C91CEE
:101E700004F0D1FD002807D00498008DA84200D8B6
:101E80000546A04200D30446059911A88978012986
:101E900006D0133609998E4204D301200B9006E038
:101EA000761DF7E78119022208A804F0B8FD04980E
:101EB0002FE08646016A203084466846028C11E095
:101EC000888B904207D30B9B012B02D076E725E04D
:101ED000C9E09042FAD9A84200D80546A04200D3F2
:101EE000044609686145EBD170460068B84210D0DD
:101EF000018D914204D30B9B012B0AD1914208D949
:101F0000A94200D80D46A14200D30C460B990129E5
:101F1000DCD100E0B2E0B842CBD175E70E98069074
:101F20000B980028F9D1069902221C31059804F07B
:101F300072FD00281FD1069820300490C1780598C2
:101F40008078814217D1012808D10698059902228C
:101F50000830C91C04F05FFD002819D0059880786E
:101F6000022808D10698059910220830C91C04F0EF
:101F700052FD00280CD00698808BA84200D8054658
:101F8000A04200D3044605988078012824D003E0BD
:101F900005988078012804D013360F9801281DD0A9
:101FA0001FE006983A490089884215D1929800F0BE
:101FB000F9FD01460498007900F022FC06990222FE
:101FC000098C48430699896940180599491D04F010
:101FD00026FD01200F90D6E7761DDEE70020B61C17
:101FE0000F900998864202D301200B9005E011A8BA
:101FF0008119022208A804F012FD069910980968B8
:102000002EE08646203084466846028C0FE0888B9E
:10201000904205D30B9B012B00D0CFE69042FCD918
:10202000A84200D80546A04200D30446096861458D
:10203000EDD170460068B84212D0038D016A9C460B
:10204000934204D30B9B012B0AD1944508D9AC458C
:1020500000D86546A44500D364460B9A012ADCD11A
:10206000B842CED1D0E60598C078022804D10598B0
:102070000079292800D1B61C761DC0E621462846E5
:1020800003F028FA0D90C8E6FFFF0000F41A0020C4
:102090000229000070B515460C46064607F0CAF83E
:1020A00020346179012D09D00A0701D5C20709D072
:1020B000CA061CD582071AD4082070BD0A4682437E
:1020C000D20701D0052070BD8A0701D58207F3D55C
:1020D000490707D540070ED5E179304606F0D2FF13
:1020E00065281FD02079C0071AD1022070BD89064B
:1020F00009D5400701D40F2070BDE179304606F0C4
:10210000C1FF65280ED02079810701D4022D0BD0A4
:10211000410701D4042D07D0000701D4082D03D0B6
:10212000002070BD0C2070BD032070BD1CB50024C4
:102130006946012007F04AFE012832D101AA022097
:10214000009907F033FE01282BD1019881690978A5
:102150008906890F25D000680168009820301EE0AC
:102160000A89114B9A4203D123235B5C012B18D0BF
:102170000D4BFF339A4211D12322525C012A0DD11B
:102180008A69537812781B02D21892B2D30701D011
:10219000641CE4B2920701D5641CE4B20968814270
:1021A000DED120461CBD00000328000010B5084801
:1021B0000649416107490723CA691202120A440409
:1021C0002243CA6100218161036110BD7E3E00008F
:1021D00000E000E004ED00E0014800687047000006
:1021E000180300207047002101E000BF491C814214
:1021F000FBDB704730B587B00C460546182218A1A6
:102200006846FDF7E5FF40206A4690731B21117573
:102210004C20D07220201072B22151740922164B2A
:10222000D206002D08D06846012180B2090440186A
:10223000D060D068C003FCD4188B0028FCD00120EB
:1022400018831720988100201861002C06D010698F
:102250001021084013690B408342FBD007B030BD0A
:10226000023F00023E30023C20023B4C023A400258
:1022700039B202345B000000000010487FB5002432
:10228000089E1D4600940194029403940C786B46BA
:102290001C7049785970117899705178D97033460B
:1022A0002A46694603F052FD7FBD000038B5304C28
:1022B0005C2220690090A17E684604F008FB2D494D
:1022C00070220860A17E684604F001FB2A492C2296
:1022D000C863A17E684604F0FAFA28490860A27E25
:1022E00017204243FF3201216846EF3204F0EFFA33
:1022F00023498864228B0121684604F0E8FA214DC5
:1023000028226866A18A684604F0E1FAE865E18A55
:102310003022684604F0DBFA28663822012168463C
:1023200004F0D5FA18496C2208600121684604F0CF
:10233000CEFA16492D2208600121684604F0C7FA3A
:1023400013492D2208600121684604F0C0FA1149A2
:102350002D2208600121684604F0B9FA0E492D22A9
:1023600008600121684604F0B2FA0C49086038BDE3
:10237000BC1900206C0300203C1D0020300300200D
:102380006C1C0020EC1A00203803002040030020C1
:1023900044030020480300204C0300205003002089
:1023A00010B5C001000C00F049F9002010BDFEB5C9
:1023B0000446172768460780D5688889AD1D1646EC
:1023C000032806D0134600220221042007F010FD46
:1023D00021E08968022201A8491C04F020FBA269BF
:1023E000900510D468468188172902D300881728E1
:1023F00001D2A77003E0814200D20846A0700120FC
:1024000040020243A26103242C7002226946681C28
:1024100004F005FB74810020FEBD0000FFB58DB007
:10242000174600206A46108106908889022806D047
:102430003B4600221821042007F0DAFCF9E0886806
:10244000F9684078891D0B9100280BD00128EFD145
:1024500079480C9006A9109804F084F91098002689
:102460000468C6E006A9109804F07CF910980B994E
:102470000468192008700120788185E06E480838CA
:1024800085680D9807940088246801050798090D50
:10249000C08981427AD10799109804F099F9079977
:1024A000169804F076F907986A4681681289487888
:1024B00090422AD0022202A8491C04F0B0FA6846D1
:1024C0002A8D01898A4208D228680C9A904204D049
:1024D000028D8A4201D80546F1E7684605AA2946D9
:1024E000008907F063FC012809D10D9802220088B9
:1024F00005990005000D08F023F9002805D068466D
:10250000028918213B460E203CE007980222816890
:1025100003A8C91C04F083FA07988089401F80B281
:1025200001900598014620318A78002A06D0012AB8
:102530000BD0002A15D0012A18D028E0C28B6B4698
:102540009B89521E9A4206DB0BE0028C6B469B89EC
:10255000521E9A420ADA6846028918213B46072031
:1025600010E0C28B68468089121A03E06A46008C2C
:102570009289821A0198824209DA684602893B46AA
:1025800018210D2007F034FC00254FE02FE00879DA
:102590000D9900F035F905460598019A8169008C7E
:1025A0006843081869468989401807998968491D50
:1025B00004F035FA0598014620318A78012A04D1C1
:1025C0006A469389019A9A18C2838979C9070ED0FD
:1025D000018C8269694351186A469389C918009130
:1025E0000199CAB2818B0D98008808F0FFFD761C16
:1025F000F6B20698864200D240E70B99192008707F
:102600000120788115E00D9826460088F1890005A3
:102610002468000D884207D13146109804F0D8F89C
:102620003146169804F0B5F86D1CEDB20698854257
:10263000E9D3002011B0F0BDF41A002010B5044613
:10264000502803D96A2107A009F0ACFC6006010CF0
:1026500013483F22028281611121018000F0AAF813
:1026600010BD00002E2E5C2E2E5C4C6962726172D1
:10267000795C426C75654E5247315F506572697086
:10268000685F4472697665725C7372635C426C75F4
:10269000654E5247315F666C6173682E63000000BF
:1026A0000000104070B504460D460B480B49201839
:1026B000884203D997210AA009F074FC174A3F20E9
:1026C0001082A008906115484030056033201080CA
:1026D00000F070F870BD00000000FCEFFF7F02000A
:1026E0002E2E5C2E2E5C4C6962726172795C426C9B
:1026F00075654E5247315F5065726970685F44720C
:10270000697665725C7372635C426C75654E5247A4
:10271000315F666C6173682E63000000000010403A
:1027200070B514460D460646502903D9B72111A0AD
:1027300009F038FC01204002864203D9B8210DA0DF
:1027400009F030FCE802310140188003000C184900
:102750003F220A828861164822684030026062681F
:102760004260A2688260E268C260CC20088000F00B
:1027700021F870BD2E2E5C2E2E5C4C696272617247
:10278000795C426C75654E5247315F506572697075
:10279000685F4472697665725C7372635C426C75E3
:1027A000654E5247315F666C6173682E63000000AE
:1027B000000010400248018AC907FCD070470000A1
:1027C00000001040F0B58468083015E0258D8D427A
:1027D00003D1146018600120F0BD25461C6020352F
:1027E000266A06E0B78B8F4202D102201660F0BD48
:1027F0003668AE42F6D124688442E7D10020F0BDAD
:1028000030B50E4B02465B7B0020012B15D9002A08
:1028100013D0012A11D00A4A12680BE00C88250552
:102820002C244443145B2D0D2405240DA54204D013
:10283000401CC0B28342F1D8002030BDE01E002011
:1028400030030020F7B58EB00020059088890C4633
:10285000072804D2002206210420109B35E0A1683D
:1028600002220AA8491C04F0DAF8A168022204A88E
:10287000C91C04F0D4F8A16802220BA8491D04F079
:10288000CEF8A089C01F80B20090A068C01D019042
:102890006846028D008A824214D8002A12D08C4FDA
:1028A0003846083884681098C068801D0790208DCD
:1028B00090420DD22068B8420AD0018D914215D8BD
:1028C0000446F4E706210120109B07F091FAF6E098
:1028D0002068B8420AD12046216A2030814203D0C4
:1028E000636A9B8B93426ED381426CD06946208D84
:1028F000098D88421AD36946098A884216D86946E2
:10290000608D898D88420CD10098022801D0102852
:1029100007D1024620460830019904F07CF80028CF
:102920000ED06946208D098A884245D06846808D40
:102930000521C902884237D0491C884234D03CE086
:102940000598002804D107990720087001200590F8
:102950000E9881780598081A04282DDB05990798A8
:1029600002224018214628310E4604F058F80598F6
:10297000216A801CC5B220462030814205D00798CC
:10298000616A401902221C3103E0079802224019B3
:10299000314604F044F8AD1CE8B205900E988178F9
:1029A0000598081A042807DB2468BC4204D069464D
:1029B000208D098A884299D97BE02646256A2036EF
:1029C000B5426BD16CE07DE06946A88B098D8842E9
:1029D00063D36946098A88426BD828462030C1787B
:1029E00001295AD100790E99FFF70AFF0C90684629
:1029F0002989808D814250D10E9801220088294674
:102A00000005000D07F09CFE002846D1E98B0098D8
:102A1000814242D1288C0C99AA6948431018009A27
:102A2000019903F0F8FF002837D10598002804D158
:102A3000079907200870012005900E988178059865
:102A4000081A042835DB0799059802220818294638
:102A50001C3103F0E4FF05981E49801CC0B20590AC
:102A60002889884207D12868B04204D0008988426A
:102A700001D02D68F7E70799059802220818294622
:102A80001C3103F0CCFF0598801CC0B205900E9855
:102A900081780598081A04280BDB2D68B54293D17C
:102AA0002468BC4205D06846218D008A814200D846
:102AB0001CE70598002805D00146109841810020A8
:102AC00011B0F0BD6846028D06210A20109BFCE67D
:102AD000F41A002003280000F7B584B006F084FA49
:102AE00084B2002069460872054605980068039084
:102AF00002F0D6FA064633E06846017A6D1CFF29DB
:102B000034D0FE2904D0002902D0492007B0F0BDFE
:102B1000234AA000801800686B46070A1F70070C44
:102B20005F70000E9870641CA0B283009B181C6834
:102B30006B46DC70270A1F71240C5C71401C84B248
:102B4000A00080180768FE2906D1062218460499BD
:102B500003F061FF00280BD0B8080019401C84B2B4
:102B600002A9204605F0AEFEB542C5D35C20CDE7F4
:102B70000398874201D91F20C8E705980025084E11
:102B8000076009E0641CA4B2A000801901680698DF
:102B9000401907F05FF82D1DBD42F3D30020B5E7C3
:102BA0000000041010B503050B4A0C480021126800
:102BB0001B0D407B0CE02C244C43145B2405240D9E
:102BC0009C4203D12C204143881810BD491CC9B236
:102BD0008842F0D8002010BD30030020E01E002005
:102BE000FFB504469089002585B01646052804D017
:102BF000002204210846089B29E0B168022202A8AD
:102C0000491C03F00CFFB168022203A8C91C03F0A1
:102C100006FF684602898089824215D8002A13D0AF
:102C20002046083004900898A468C068801D009071
:102C3000208D90420ED22068049988420AD0018DDE
:102C4000914216D80446F3E704210120089B07F0BF
:102C5000CFF8ACE02168049881420AD12046216A6D
:102C60002030814203D0636A9B8B934275D38142AB
:102C700073D06946208D098988422DD36946898998
:102C8000884229D8002D08D1012001900521009803
:102C90000225017000980199417006988078401BC8
:102CA00004287DDB019801287DD100982146401938
:102CB0000222283103F0B3FEAD1C0098EDB221468C
:102CC000401902222A3103F0AAFE6946AD1C208D6C
:102CD0008989EDB2884266D02746266A2037BE42EF
:102CE00058D159E06946B08B0989884251D3694669
:102CF0008989884257D8002D30D02320815D0198E2
:102D0000814252D106988078401B042802DB019949
:102D1000012904D0122848DB0198022845D10098E7
:102D20003146401902221C3103F079FE0198AD1C96
:102D300001280098EDB208D0314640191022083120
:102D400003F06DFE1035EDB223E03146401902224A
:102D5000083103F064FEAD1CF5E733E02320805D0D
:102D60000190009905200870009801994170009821
:102D7000314602221C31801C03F051FE01980128CB
:102D8000009817D0314610220831001D03F047FE8D
:102D900014253668BE42A5D124680498844200E018
:102DA00001E000D065E7002D0CD008984581002097
:102DB00009B0F0BD314602220831001D03F02FFE9C
:102DC0000625E6E76846028904210A20089B3EE7BB
:102DD00001460020074B0A05120D8100C918498FD2
:102DE0000905090D914204D0401CC0B20828F4D353
:102DF00009207047D41C002010B5084B0246002162
:102E00008800C018448F3A302405240D944204D021
:102E1000491CC9B20829F3D3002010BDD41C0020DE
:102E200010B50C4983080A680B490020497B0CE067
:102E30002C244443145B002C05D0984203D12C2150
:102E40004843801810BD401CC0B28142F0D8002019
:102E500010BD000030030020E01E002030B595B00A
:102E600014460D4606F01CF9002812D0C17B6A46B4
:102E7000C907C90F683006F049F8002802D05C2065
:102E800015B030BD0FA8224629460130FFF724FEB9
:102E9000F6E70220F4E7000070B50D468100064811
:102EA0000C1829462046FFF7FDFB2068854201D11A
:102EB000002070BD4A2070BD00000410F8B5154612
:102EC0000E465E2406F0ECF8002812D068302A4640
:102ED0003146074607F0B6FC04465D2809D172B6B4
:102EE00005F0F8FE62B62A463146384607F0AAFCDD
:102EF00004462046F8BD0000002208B511461046E1
:102F000002F014FE694648700B480179CA0704D0E4
:102F100001226B461A7091430171C9B28A0705D527
:102F200002226B461A70FD2211400171022168468F
:102F300008F042F908BD0000F01E0020FFB506466B
:102F400052A003C893B0019100900321C9026846C2
:102F5000C185012708A81446077302F043FA002828
:102F600007D14C4802F0B0F84B4DA878002802D0A9
:102F70000C2017B0F0BD36071498360F002801D08A
:102F800010200643072201230BA9434800F084FECA
:102F9000002875D102224049169803F040FD298887
:102FA00068460181152149028181848387724E21FF
:102FB00081770021C17708A80770072141708770C9
:102FC00002A909A800F02EFC002859D1022209A963
:102FD0001C9803F024FD0827082C684601D244857C
:102FE00000E047850024014604850B4628880AAA8C
:102FF000898C01F061FE002842D128496846818110
:103000000221818308A8847002A909A800F00AFCA3
:10301000002835D1022209A91D9803F000FD694658
:103020000C704C70022048850B4628880AAA898CAF
:1030300001F042FE002823D1F00723D0174968464B
:10304000C91C818187830A21817708A8047002A99D
:1030500009A800F0E7FB002812D16946FF20C871DB
:103060008871C8708870487008704C710C714F85F9
:103070000B4628880AAA898C01F01EFE002801D080
:10308000472076E7AE70002073E70000626C75653C
:103090006E7267211A1A0020F01E0020012A00001B
:1030A00070B50C4C03462079C50612D4400710D5E4
:1030B000094883420DD1E07A02280AD10420107019
:1030C00000205070104608F077F82079FB21084066
:1030D000207170BDF01E0020120C0000F8B50D46E6
:1030E0000021264C00910346A2782079012B0ED0B6
:1030F000082B3DD0012109048B4238D1000602D5AE
:10310000284608F02FF9207981072DD128E0D30730
:1031100003D0E37880263343E370520727D5420774
:103120000AD5E27A002A07D1EA78AB7812021A436C
:10313000134B5A800122E2724206120F17D07822F6
:1031400010406A46107051700E4A6B46527C12064F
:1031500003D50A469B1C08F04BF9207987210AE029
:10316000C10601D4800602D5284600F06DF8F8BDEE
:103170005107FCD5FB2108402071F8BDF01E00204E
:103180002A030020041A002010B5084CE0788007BC
:103190000AD5002002F018FC08F01EF8E0780121A2
:1031A0000843FD210840E07010BD0000F01E002023
:1031B0000FB470B5099D012842D16846848A214820
:1031C000844210D105AC0FCC00F0AEF9002832D10A
:1031D00005F012FF492833D0012831D92878F3218E
:1031E000084028702CE01748401C844205D105ADEA
:1031F0000FCD00F099F900281DD11520400284421E
:1032000005D105AD0FCD00F08FF9002813D10D4881
:10321000401E844205D105AD0FCD00F085F9002890
:1032200009D10848801C84420AD105AC0FCC00F0BB
:103230007BF9002804D0662070BC08BC04B0184795
:103240000020F9E7022A0000F1B582B0029C0026B6
:1032500060780125641C009035E06843C10089193D
:1032600009194F78C1004018194980190A790019C5
:103270009106401C890F1ED1617804291BD00021C2
:1032800009E0491CC9B2435C012B07D04318203B1D
:10329000DB7F5918C9B2B942F3D30FE0491CC9B258
:1032A000D30702D0405CC00703E0920706D5405C1C
:1032B0008007002802D0029808F054F8F019801C0A
:1032C0006D1CC6B2EDB200988542C6D9FEBD0000A5
:1032D000F01E002010B588B00A4604460078694602
:1032E00008701F498B78DB0624D5002A0ED069466A
:1032F00001A802F061FD00280DD168460078012880
:1033000009D16846407A400602D40FE003280DD068
:1033100001A801F057FE01216846017005214176A0
:103320001048059003A806F048FF0AE001A801F044
:1033300007FEF0E701280ED006220B4901A803F092
:103340006EFB6846007820706846017801A802F09C
:10335000C5FE08B010BD062201A8491DEFE7000018
:10336000F01E0020A0BB0D00C01E002038B50020BC
:1033700069461A4C0870E0784106890F01D10007B0
:1033800014D5002002F020FB00280AD10121684654
:10339000FFF7A0FF002804D1012002F015FB002850
:1033A00003D0E07897210840E07038BD2079902163
:1033B0000842FAD000220121104602F0B7FB002893
:1033C000F3D101216846FFF785FF0028EDD10121E7
:1033D0000022084602F0AAFB38BD0000F01E0020C3
:1033E00010B51B4C8AB0E07800061AD50520694656
:1033F0004873684606F028FFA078C0070DD0E07833
:10340000800708D5042069464873684606F01CFF0B
:10341000002007F0E1FE0020E070E0784006400E5A
:10342000E0702079400710D5E07A01280DD11521F0
:1034300049026846418201210174064804AB408874
:10344000054A00F009FE0220E0720AB010BD00003B
:10345000F01E00202A030020FFFF000010B50C2200
:103460000021064803F0DFFA04480021C170817092
:103470000422034803F0D7FA10BD0000F01E00201C
:103480002A030020F0B58FB0054617A8D1C80997C8
:1034900006AF51C714A851C803AF51C768460EC044
:1034A000114CE078C006800F08D000202B46062281
:1034B000012107F047FD050002D012E00120F5E7E9
:1034C000E07804268007002804DA08A846750AA8D0
:1034D00006F0BAFEE078FD21400840000840304385
:1034E000E07028460FB0F0BDF01E002008491422FD
:1034F0000979114209D0074900054988000D0905DD
:10350000090D814201D10120704700207047000061
:10351000F01E00202A03002010B502F013FA10BD9F
:1035200082698A43826170471FB582B0002401F02E
:10353000B1FD694606F04AFC00986A46016A1289A4
:10354000203009E023235B5C012B04D10B899342DB
:1035500001D1641CE4B209688142F3D1204606B06F
:1035600010BD000002490A7E02430A76704700003F
:103570002C1B002082690A438261704700B5113814
:10358000C0B2FFF74DFC002804D00122816952052A
:103590001143816100BD704770B504460068C10BDE
:1035A00001D1002803D1792135A008F0FBFC606827
:1035B00000280BD0062809D0012807D0042805D000
:1035C000052803D07A212EA008F0ECFC607A0028B0
:1035D00005D0012803D07B2129A008F0E3FC207A44
:1035E000002805D0012803D07C2125A008F0DAFCB2
:1035F000012260689207002802D0062804D009E062
:1036000050682168884304E00020606050682168A9
:103610000843506000200F262168C140C907C90F28
:1036200017D0082809D2D36A810035468D40AB43B4
:1036300065688D402B43D3620BE0102809D28100CE
:1036400035462039136B8D40AB4365688D402B4365
:103650001363401CC0B21A28DED3207A0128D06838
:10366000216809D08843D060607A01289068216879
:1036700004D08843906070BD0843F4E70843F9E73D
:103680002E2E5C2E2E5C4C6962726172795C426CEB
:1036900075654E5247315F5065726970685F44725C
:1036A000697665725C7372635C426C75654E5247F5
:1036B000315F6770696F2E630000000002481021BF
:1036C0008078084070470000F01E0020F3B599B0E4
:1036D00008880A90081D1DC84E880DAD1DC58C8A2E
:1036E000CD8A087E1890C86920310390087802902E
:1036F0004878079088780690C87805900F7900F090
:103700005DFD002817D10120400284425DD8AC4203
:103710005BD8002F01D1AC4257D113A90A9806F00B
:1037200055FB012806D117AA3046139906F03EFB37
:10373000012802D060201BB0F0BD139E14A93046B2
:10374000183003F00FF8149800280FD0304616A94F
:10375000203003F007F8169B149A308D716AD21846
:1037600080188A8B904203D16220E4E71F20E2E7B1
:1037700017982B4B02899A4227D12322125C012AE7
:1037800023D1006800681590189801281FD1684659
:10379000808E29221202801A030007F087FB06049C
:1037A000180404070A18022C0FD110E0072C0CD1C2
:1037B0000DE0042C09D3E00707D1012F07D1A54262
:1037C00003D3042D01D3E80701D06120B3E7069BA2
:1037D0000598079A0B900C970992039A02980A93FE
:1037E00008900695059407920DA81DC8019002A89F
:1037F0001CC018980B46009032461599199800F095
:10380000B5F9002897D168460549808EFF31884276
:1038100004D019980088014601F05CFE00208AE778
:1038200003280000F3B5A7B008881A9088780C46E2
:103830000F901022091D11A8FCF775FEA08A0D90AB
:10384000A07D69460872E07D0E90207E2090607E0B
:103850001B90A07E1F900020109020A918908881B6
:10386000012016900F20249000F0A8FC00280BD116
:1038700001210D98490288425DD822A91A9806F0C4
:10388000A5FA012802D0602029B0F0BD229E01F0E7
:1038900001FC1A9988420CD102A80190149800905A
:1038A00011AC0ECC0F98FFF783FC002801D06620E6
:1038B000EAE76846017AA84F8806800F002804D0FE
:1038C00001201090787B40001890C80705D0109810
:1038D000401C10901898801C1890080605D5109868
:1038E000401C10901898801C18903046183015A96C
:1038F0001D9002F037FF109C1598A41CA0423CD3E9
:103900003046203019A91C9002F02CFF199800288D
:103910000AD0716A159B328D1818898B1018401ABD
:10392000A04201D26220AFE7B4690F982568012850
:1039300003D0022803D06120A6E7052000E0132071
:10394000E0832A461B990E98FEF7E5F961289BD083
:103950006846007A4C21084201D0787B16907F4F50
:103960000D9BF889B989E28B411A169858431218B1
:10397000169018981018814201DA1F2084E719A9BF
:103980001C9802F0EFFE1998002802D0706A808B14
:1039900000E0308D2799401C08802798012100887D
:1039A000A083279802220088401CA8836C482081AD
:1039B000204620301790C1700021817081716948C4
:1039C000B989406E40186946A061097A0170A06902
:1039D00029461C31401C03F022F80F980128A069E9
:1039E0007ED0102211A9C01C03F019F8284610221D
:1039F00011A9083003F013F8B8891330B8812E46A6
:103A000020360F98F0700D98E8831F98B0700D98CD
:103A100020840D9828845348B989406E4018A861C5
:103A20000021169A02F0FFFFB98916980818B8818C
:103A30001799012008711799002048713071684664
:103A4000007A810701D50121317101070227002980
:103A500002DA317939433171410703D531790422D2
:103A600011433171400603D5307908210843307184
:103A70000E9870712098B07121461D9802F0A8FE32
:103A800021461C9802F085FE29461D9802F0A0FEF2
:103A900029461C9802F07DFE1098002844D0684604
:103AA0001A998181A18BC18107844784012408A8C8
:103AB000047123A80A9008A88473249941730721EC
:103AC000C173002505746846007AC0070DD02648EA
:103AD000694608820E983821084008A9087300E05A
:103AE0002CE003A925A8FFF7F1FD6846007A8006BF
:103AF000800F0AD01C486946401E088208A90E980B
:103B0000087303A925A8FFF7E1FD6846007A0006BF
:103B10000AD5292109026846018208A84473057361
:103B200003A925A8FFF7D2FD279810990088491C02
:103B3000411889B201F0CEFC0020A5E6022211A9AD
:103B4000C01C02F06CFF2846022211A9083002F0C6
:103B500066FFB889401D51E7E01E0020AC1C002024
:103B600003280000EC1A002003290000FFB587B0ED
:103B70000998199A203001251C9E0290002A03D032
:103B8000012A01D04148457B10A82923404C828856
:103B90001B02029881421ED02320405C012818D1CC
:103BA00008896F46388098420CD0394FFE37B842AA
:103BB00008D07F1CB84205D07F1CB84202D0BF1C81
:103BC000B84206D1A04201D0904202D163200BB08E
:103BD000F0BD0968DDE709981B99846918982246A9
:103BE000FEF799F86128F2D0012E05D116991598A3
:103BF000814201D26120EAE715982746E083203709
:103C0000BE70169820840A98808B401CA083109860
:103C1000012815D02046102211A9083002F0FFFE1D
:103C20001098F8701B48416EFF30C13082898918A6
:103C3000A1611699828969435118818100260FE09C
:103C400011AE0FCE264608360FC6E9E71698A169D1
:103C500070430818159A179902F0E1FE761CF6B227
:103C6000AE42F3D318987871199838711A98B871D0
:103C700009982146183002F0ABFD2146029802F067
:103C800088FD0798A18B01800020A0E7E01E00209E
:103C900003280000EC1A0020FFB58DB015460F7800
:103CA000102205A8891CFCF73EFC00F087FA0028CA
:103CB00020D1002D55D0474C204608300490012FCC
:103CC00008D16846808A4449884203D1A168049893
:103CD000814246D13F48216910300990814208D085
:103CE0000AA9103802F03EFD681E0A990C90814224
:103CF00002D21F2011B0F0BD0BA9049802F032FDD2
:103D00000B98002812D0E6680AA93046183002F055
:103D100029FD30460BA9203002F024FD308D0A9990
:103D200041180B98401C081886B200E001260120BB
:103D30000004801BA84201D26220DBE72548046909
:103D4000006803901098012802D0022803D008E0F0
:103D50000520C00200E021486085012F03D0022F1A
:103D600003D06120C6E7022200E01022204605A908
:103D7000083002F054FE20462030029007730D9860
:103D8000214606802685099802F022FD21460498E6
:103D900002F0FFFC26461836E661A66102986062D2
:103DA00020626D1E0CD00B4C0A48039902F010FDE6
:103DB0003046039902F0EDFC206803906D1EF3D1AC
:103DC0000D980C990088411889B201F083FB0020FE
:103DD00090E70000EC1A0020011800000128000004
:103DE00010B50A4A014613680A0509490020120D58
:103DF000497B08E02C2444431C5B2405240D944299
:103E000003D0401CC0B28142F4D810BD3003002062
:103E1000E01E0020F7B582B005460E460020009057
:103E20006946304602F09EFC2F053F0D34680EE0D7
:103E30002546002800D02C682889B84207D1294699
:103E4000304602F0C5FC2946049802F0A2FC009816
:103E5000401E0090411CEBD105B0F0BDF7B582B01B
:103E600005460E46002000906946304602F07AFC76
:103E70002F053F0D34680EE02546002800D02C6841
:103E8000E889B84207D12946304602F0A1FC29460C
:103E9000049802F07EFC0098401E0090411CEBD17B
:103EA00005B0F0BDFEB50024664E0094307EC0071C
:103EB00074D0654D37E020462C214843634909689A
:103EC0000A5A002A2DD04718B869410208D5388807
:103ED0000190384600F004F901980AF011FE20E044
:103EE00081020CD538885A490005C97C000D890724
:103EF00001D507F0EFFA384600F0F2F811E040077C
:103F00000FD538880005000D05F044FA002804D1CB
:103F100038880005000DFDF72FFF04213846FFF714
:103F2000FFFA641CE4B2687BA042C4D84548454F00
:103F30004038006D1037B84215D06946384602F057
:103F40003AFC00980089FEF72DFE0446007E00072B
:103F500005D40420009901F0C3FB00281FD0384687
:103F6000009902F008FC02F01DFF364C403C204650
:103F7000216B3030814205D0206CB04202D001204C
:103F800002F0F8FD2F48216A2038064628360290B4
:103F9000814231D0002002F0EDFD2DE04AE0082101
:103FA0002046FFF7E7FADEE76946304602F003FCF9
:103FB0000020019000980089C10407D5FEF7F2FDAA
:103FC0000190009801890905090D018104200099DB
:103FD00001F086FB002809D000990122088912030C
:103FE00010430881304602F0C6FB08E00198002823
:103FF00002D08021FFF7BEFAA06CB042D4D1A06CF1
:10400000B04217D1216A0298814213D1206DB84283
:1040100010D10E49002009686A7B09E02C23434334
:104020005B189B695C050CD41B060AD5401CC0B20A
:104030008242F3D872B60748022201781143017018
:1040400062B6FEBD2C1B0020E01E002030030020C5
:10405000041A002068030020FFB58BB017460646FF
:1040600046241D781022991C06A8FCF75CFA05A9C5
:104070003046FDF75DFE060026D00599002922D0C6
:10408000012D04D0022D02D042200FB0F0BD0495C6
:1040900006A81DC86D461DC53B4630460C9AFCF768
:1040A000ECFF040004D00948059902F072FB0BE014
:1040B000012149033046FFF75DFA054830620348A5
:1040C00005990830F1E71F242046DEE72C1B00206D
:1040D000D540041010B5502100F0B2FB10BD000017
:1040E00070B5044686B000200490208B800408D56B
:1040F0002F492088497DC90703D06946097C07F00C
:10410000E8F92C4A208811460831FFF7A7FE294A12
:1041100020881032114615461031FFF79FFE2549C1
:1041200020882A461831FFF799FE224A2088283233
:10413000114615461031FFF76DFE1E4920882A46AC
:104140003031FFF767FE20880005000DFFF748FEBD
:1041500085000646294611316846417306F074F819
:10416000294612316846417306F06EF8294613312C
:104170006846417306F068F868461435457306F0E2
:1041800063F8208800F0BCFA2C220021204602F0BF
:104190004AFC80212046FFF7EDF9074817214E43DE
:1041A000806CFF36EF3680196062A17006B070BD7A
:1041B000041A0020041B00206C1C002038B50020CD
:1041C0000B4C0090207EC0070DD06946204602F0BF
:1041D000C9FA207E800708D5FDF7A8FF009988421C
:1041E00003D9642038BD472038BD002038BD000009
:1041F0002C1B0020F0B57AA09BB00068794E15907A
:10420000307EC00702D063201BB0F0BD7648199005
:10421000427B2C20424375480021006802F003FCD9
:10422000704838380446083CE0606460A060246050
:10423000083012906061206108301490E061A06144
:1042400010301390E062A062083860622062103083
:10425000606320630830E06366642664A063103006
:10426000E064A06408306065206500202546FF35C5
:10427000307681351721AA6C414351180201121979
:10428000401C11670A28F5D3002041014118AA6C8F
:10429000E6315218182141430919FF310131401C00
:1042A0004A610828F1D3FF20EF30002718901BE067
:1042B00038462C2148434D49169009684018802102
:1042C000FFF758F91720189978434018AA6C474906
:1042D00012181698096840184262444A16981268E3
:1042E0001721801881707F1C1998407BB842DFD855
:1042F0000025280101196831149802F04AFA6D1C52
:10430000052DF6D30525280101196831139802F00F
:1043100040FA6D1C0A2DF6D30025182068430119B8
:10432000FF313046093102F034FA6D1C082DF4D308
:1043300000212F480D468181077C807C109008E089
:104340002820E16D684309182648403802F021FA18
:104350006D1CBD42F4D3002507E03020216E684378
:104360000918129802F015FA6D1C10988542F4D3C2
:104370000120FFF7F7F80124684604701D494180C9
:104380002346042269460CA8FFF786FC002822D1A8
:104390006846018E8182184901830425058584754C
:1043A000202108A881720024C4720473072141737C
:1043B000847305A90DA8FFF735FA00280BD16846CC
:1043C00004874587818E15AB0EAA008E00F074FC21
:1043D000002800D118E700203076472014E70000BD
:1043E0000000FFFF2C1B0020E01E002030030020F7
:1043F000AC1C002001180000052A0000F0B50C4696
:104400008BB00021BB4D05912A7ED2077ED002469B
:1044100001280DD0022A28D02E46403E30462830B2
:10442000069008300490032A2DD0042A12D1ABE064
:104430000220FFF797F8B049B04A00200968527B84
:1044400006E02C234343CB5A002B04D0401CC0B2BF
:104450008242F6D84BE12C2250434018E178A278F2
:10446000090211430180042165E0A078617800020F
:104470000843FEF797FB0028ECD0012281699205E2
:104480001143816133E12089FEF78CFB0500E1D007
:10449000A969480773D4E068801D02906089001FF5
:1044A00007043F0CD6D0029800781E280DD10A07C9
:1044B0000BD508212846FFF733F82988012005F09D
:1044C000F3FC288807F009F811E1420622D5D2282A
:1044D00001D05228BED12988002005F0D3FCA8784D
:1044E000B842B7D3834DB169283DA94247D0039163
:1044F00088683A46029902F092FA03998F812089DE
:10450000C881284602F064F9284600E03AE0083005
:104510000399DBE0C20711D01D2813D01B2811D04E
:1045200048052FD43A46686A029902F078FA0121C8
:104530002F8589022846FFF71DF8D8E0298800203A
:1045400005F0A0FCB16A0698814218D0287EC0060A
:1045500015D403A9069802F02EF9A878B84203985A
:10456000806801D2012200E03A46029902F057FA2F
:1045700003998F812089C8810498A7E0FFE745202F
:104580000BB0F0BD4120FBE707912146284602F021
:1045900000F92089FEF706FB07004BD007A9284643
:1045A00002F0E0F8079A022A09D3287E010606D510
:1045B000802188432876208991B206F08FFFE16838
:1045C00088798D1D032836D0052834D0072832D0AD
:1045D000092830D00B282ED00D282CD00F282AD017
:1045E000112828D0132826D0172824D0192822D003
:1045F0001B2829D001281ED002282CD004282AD01C
:10460000062828D0082826D00A2824D00C2822D012
:104610000E2820D010281ED012281CD016281AD000
:10462000182818D0522816D01E2814D0D22812D0FC
:104630001D284ED05BE010213846FEF771FF398807
:10464000002005F031FC52E00B46A07A0933C01F70
:10465000C2B2012048E040213846FEF761FF2878C9
:104660001E2811D0388B000541D5FF210131384675
:10467000FEF780FF3988022005F004FC0121C90201
:104680003846FEF74DFF32E005A9346B049802F07E
:1046900069F83988032005F007FC01210903384631
:1046A000FEF73EFF06E0A16809781D2908D0002822
:1046B00000D024680598401E0590411CF3D116E0F7
:1046C0002146049802F084F82146069802F061F829
:1046D0000DE03988012005F0D5FBE168A07A0B4692
:1046E0000933C01FC2B20220C91D05F095FB00208E
:1046F00046E700002C1B002030030020E01E0020B5
:10470000F1B5FFB085B0002000904B480746083750
:1047100081684BE000980D4603AC20186B460222DE
:1047200028310AF0C3FA0098294620186B46012266
:104730002C310AF0BBFA2E462036307B0099012836
:1047400003A809D040186B461022294608310AF008
:10475000ADFA02902C6A26E040186B460222F4E77C
:10476000009903A8401821466B4602221C310AF02A
:104770009DFA009903A8401821466B460122233177
:104780000AF094FA204620300190C0780099012860
:1047900003A827D0401821466B46102208310AF0A2
:1047A00085FA02902468B442DAD12968B942B1D1BD
:1047B0000298002813D10098810709D0011D8908AB
:1047C00089000A1A009103A908180B2102F02BF99D
:1047D000849803AA0005000D0099FEF76FFB7FB0D7
:1047E00006B0F0BD401821466B46022208310AF09F
:1047F0005DFA0290208911498842D3D18498FEF74E
:10480000D1F901990A7901461046FDF7F9FF0190A7
:10481000A16940000918009A03A880186B4602227B
:104820000AF044FA0290A1690198022208180021B6
:1048300002F0F9F8B6E70000EC1A002002290000A7
:10484000F0B593B00F460446002069460875268DE2
:10485000656A0B90B806800F03D02088FEF746FEED
:104860000B90F9480A9008380E907A060421F54B0F
:104870002878002A7EDB012811D0B01E04906878C9
:104880000390F906F8070D91002822D0049800281B
:104890001FDB0399FBF7D1FE002915D019E0052E87
:1048A0004ED128790A2802D041206A4610750B980B
:1048B000002875D120886A1C06F020FD01214903DB
:1048C0002046FEF72DFE4DE10398062817D0142848
:1048D00015D0B80708D5052E06D30321B0078907E0
:1048E000C84201D102203BE078070FD50498002888
:1048F0000CDB0399FBF7A1FE002902D006E00120A2
:104900002EE0039808280DD006280BD00D98800FB4
:104910000FD0049800280CDB0399FBF78EFE0029CA
:1049200002D006E004201BE00398072809D01528D0
:1049300007D0B80604D50398012804D0022804D073
:104940009BE108200CE0042000E012200390022EDE
:10495000F6D90146B01EFBF770FE0029F0D11020F9
:1049600081070AD5701E80100190800040190178DF
:104970001D3800E0FEE0027F0EE0C00603990498B7
:104980000FD5401CFBF759FE01900399401E484388
:10499000A91C401841780278080210430C900DE0E1
:1049A00000E1FBF74AFE01900399401E4843A91C11
:1049B000401841780078090201430C91F80644D56B
:1049C000A18A0C98814202DD207E400672D400202C
:1049D00037E0039807280BD003990098102248432A
:1049E000E91D4018211D02F016F8002812D026E01B
:1049F000102296490FA802F012F800980222C10076
:104A0000091AE81D091812A802F009F81022211D40
:104A10000FA8E8E70B9803990028009808D04843AE
:104A2000A91C421887480399401CFEF739FB06E091
:104A30004843A91C42182088039906F04DFC0098B1
:104A4000401C019900908842C3DB3820074204D003
:104A5000A18A0C98814204DC6DE07D490C98884263
:104A600069D0207E400601D5F80623D5764848381F
:104A7000016C0E98814274D006A901F09CFE20883A
:104A800001220005000D06991203104308818C468F
:104A90000521FA070120C902002A0CD06A461180BC
:104AA00004900C986A4B401C82B261462046FCF789
:104AB000AFFA34E096E0BA0712D5E07801280DD0BD
:104AC000102002900C98221D0192401C009182B28D
:104AD0005F4B61462046FCF733FA20E00220F0E706
:104AE000790701D55B4904E00D99890F0DD059492B
:104AF000491C6A46118004900C98A38A401C82B21B
:104B000061462046FCF7B9FA09E0B80607D50C98CB
:104B1000A38A401C82B261462046FCF740FA0699FF
:104B20000A9801F036FE761E2388B2B2691C384618
:104B300008F076FF1BE0761E2388B2B2691C384667
:104B400008F06EFF012149032046FEF7E9FC0B98AF
:104B5000002807D0C12005AA01210001FEF7A0FA14
:104B600005E079E0208805AA012106F0D9FB0020A4
:104B700013B0F0BD01280BD00520074223D0F80761
:104B80001AD0761EF1B220886A1C06F09BFBD9E78A
:104B900041206A461075052ED4D10B98002806D006
:104BA000B80604D46A1C1846FEF77AFACAE72088C9
:104BB0006A1C06F0A3FBC5E7761EF1B220886A1CCA
:104BC00006F076FBBEE7B80748D5A078B04206D914
:104BD000761EF1B220886A1C06F050FBB2E7207EF8
:104BE000400605D5012189022046FEF7C3FCBEE739
:104BF00015484838016C0E9881422DD006A901F065
:104C0000DAFD208801220005000D120310430699E9
:104C1000761E0881F1B220886A1C06F02FFBE0881E
:104C2000A178401E0D18ABB2A28820460699FCF769
:104C3000D4F906990A9801F0ACFDA9B2A01D05F0BF
:104C400005F894E7110C0000341B002098EE0410C6
:104C5000FFFF000002280000452089E7F80696D5EE
:104C6000022E0AD96F78B01E874201DD012609E0C5
:104C70003946FBF7E2FC002903D04120694608755C
:104C800060E70646AD1C0095002510E00B983946FC
:104C9000002804D00748009AFEF702FA03E02088B3
:104CA000009A06F019FB0098C0196D1C0090B542DF
:104CB000ECDB47E7120C0000FFB589B00020039041
:104CC0000090069015885088994A05920190107EB0
:104CD0000C46C0070BD001200199400281421BD82D
:104CE00004A9099805F072F801280AD102E04720CA
:104CF0000DB0F0BD02AA2046049905F057F801282E
:104D000001D06020F4E702998A4A0889904203D1D1
:104D10002320405C012801D06120E9E78869864EA4
:104D200000788006800F00287DD00598007E8007DF
:104D300079D5824A0020737B14680DE02C2242430F
:104D400012199269970701D06420D1E7520701D563
:104D500001220692401CC0B28342EFD80868046862
:104D60007DE020897349884203D12321095D01290F
:104D70007AD07049FF31884270D12320005D01282C
:104D80006CD1002049E02C2102464A436B49096856
:104D90008C46895A09053ED041008E46A369491CBC
:104DA000595C0F027146595C029BC9199B6989B213
:104DB0008E461B7800210793DB0606D57346DB077A
:104DC00003D0009B01210B430093079B9B0607D553
:104DD00073469B0704D50223009F19431F43009786
:104DE000CB0707D06346D718BC46BB6901273B43B6
:104DF0006746BB6189070ED50999012921D106991A
:104E000000291ED04D49096851188A69530702D5F7
:104E100002231A438A61401CC0B2717B8142B2D81E
:104E200003A9059800E01FE001F09CFC00988007B2
:104E300002D0039800280CD00098C043800705D00A
:104E40000CE03E49096851188A69E1E70398022895
:104E500004D28020FEF786FB64201AE024680498C0
:104E60002030844200D07CE702980468204620303D
:104E700005908078002802D0012802D00DE0E08B58
:104E800000E0208CA84203D3411B0198814204DA40
:104E900047202A4A0021136845E005980079002838
:104EA00012D0012810D000270AE0208CA169784395
:104EB00008184019019A0C9901F0B1FD7F1CFFB24E
:104EC000707BB842F1D805E0A069019A40190C99AD
:104ED00001F0A5FD05988078012805D1002D01D0AD
:104EE000208C00E00198E0830098800706D52146D9
:104EF000A27F1C310220A36904F08EFF0098C00736
:104F000006D02146A27F1C310120A36904F084FF52
:104F10000020EDE62C224A43D2189469A408A4008C
:104F2000491CC9B29461727B8A42F3D8E0E6000062
:104F30002C1B002003280000E01E0020300300206E
:104F400070B5044600F0AAF92070000A607000F005
:104F5000A5F9A070000AE07000F0A0F9C2B28004C8
:104F6000830E2271002163710846255C401C69187C
:104F7000C0B289B20628F8D30029E3D02078FF28F0
:104F80000CD16078FF2809D1A078FF2806D1E078FD
:104F9000FF2803D1FF2A01D1FF2BD3D006220749D6
:104FA000204601F038FD0028CCD0062204492046D6
:104FB00001F031FD0028C5D070BD0000F51E0020B5
:104FC000C01E002010B586B0044601A804F00CF9FC
:104FD00000F064F969468870000A487000F05EF9D4
:104FE00069460870887840214006400E08436946AB
:104FF000887005AA01A8FCF75DFE032205A92046DA
:1050000001F00DFD03226946E01C01F008FD06B029
:1050100010BDF0B589B00646002015460C4600903C
:10502000019002900346039004AA6946304600F0BE
:105030008DFE6846C07F8727000600286E46214601
:1050400004A80DDA01F078FB684607700020215CA7
:10505000325C51402154401CC0B20F28F7D301E00C
:1050600001F06AFBE07B2946000620460ED501F0E0
:1050700063FB684607700020295C325C514029546C
:10508000401CC0B20F28F7D309B0F0BD01F054FBAB
:10509000FAE700000148008870470000F01E002079
:1050A0000C20704710B50622014901F0B8FC10BD74
:1050B0001A1A002010B500F005F88107890F0818AA
:1050C000800810BD5020704710B50622014901F03C
:1050D000A6FC10BDF51E0020F7B5174600241BE006
:1050E00000981049001940188608019800190546D3
:1050F000FBF788FA0102E878090A0006014309482B
:105100000D46B10040420E1829463046FDF7CAFA56
:105110003068854204D1241DBC42E1DB0020FEBD85
:105120004A20FEBD0000FCEF30B50D4604460023CA
:1051300007E000F0B3F8E054000AE1189B1C487047
:10514000DBB2AB42F5D330BD10B5012814D8072926
:1051500012D80A4A0A4B107051708007000EC90617
:10516000090E084A01430020527B03E08401E41841
:10517000A172401C8242F9DC002010BD28030020EF
:1051800000010020E01E0020074A914202DC52424A
:10519000914200DA1146FF22993251430A12511806
:1051A0000A14511808187047FFFF4F0010B5092066
:1051B000C00600690002000A05F070F810BD70B565
:1051C0000D460446FFF7F2FF2946FFF7DDFF0146D3
:1051D000204600F001F870BD1FB56A463A305073A2
:1051E0006846029104F0FAFF002800D0012004B0C4
:1051F00010BD70471FB569463A304873684605F0E0
:1052000023F81FBD10B50400144813460CD0062C1B
:1052100010D0082C0BD0182C09D0282C0AD02A2CFE
:1052200008D02C2C09D00AE006290AD007E0102962
:1052300007D004E0022904D001E0012901D01220A6
:1052400010BD0A460019194601F0E9FB002C03D1F4
:105250000021024800F042FF002010BDC01E0020C7
:1052600070B50D4C002525700622FF21601C01F051
:10527000DAFBE571202020721F2060722046072291
:1052800000210A3001F0CFFB20460522FF2111301A
:1052900001F0C9FB70BD0000041A00200B200007BC
:1052A0000168490707D5016804229143016001683C
:1052B00008221143016041684168C907FCD0806839
:1052C00080B2704700B5FFF7E9FF0346FFF7E6FF3E
:1052D0000004181800BD0000FFB50746144881B04F
:1052E000066C1D20F5681446A871E81D0222AD1D4C
:1052F00001F095FBB878C01E80B2A04200D80446E9
:10530000E81C2246049901F08AFBE41C7481388869
:1053100031460005000D30810548403001F058FA53
:1053200003483146503001F034FA05B0F0BD0000BA
:10533000EC1A0020FFB50746144881B0066C1B200C
:10534000F5681446A871E81D0222AD1D01F067FB47
:10535000B878C01E80B2A04200D80446E81C22469D
:10536000049901F05CFBE41C748138883146000527
:10537000000D30810548403001F02AFA03483146DB
:10538000483001F006FA05B0F0BD0000EC1A00202C
:10539000FEE7000070B516460C46050003D0002C51
:1053A00001D0002E03D1232109A006F0FBFD00232C
:1053B0000BE0E85C0109580030312154E95C001928
:1053C0000907090F303141705B1CB342F1D370BD46
:1053D0002E2E5C7372635C636F6D6D2E6300000034
:1053E00070477047F8B5354D374C29682646183652
:1053F0004B6B334A009600273248103E934217D138
:105400000622401D243101F00AFB0222A01D29685A
:1054100001F005FB296810223046091D01F0FFFA52
:10542000296810221431009801F0F9FA3846F8BDC5
:1054300007460621401DFFF777FEB87AC0210843D2
:10544000B87228680622791D2430FFF745FE07460A
:105450000221A01DFFF768FE0222A11D2868FFF7A8
:105460003BFE014639430C4610213046FFF75CFEF7
:10547000286810223146001DFFF72EFE044310213C
:105480000098FFF751FE2868102200991430FFF7AA
:1054900023FE20430FD10D492868094C401880088D
:1054A00081000B480D1821462846FDF7FBF82968B6
:1054B0000020A142BBD04A20F8BD000064030020B8
:1054C000AAAAAAAAF01E0020C01E00203400FCEFE9
:1054D000000004107FB50D460646412402A90120B4
:1054E00004F074FC012818D103AA0220029904F0E8
:1054F0005DFC012811D10A48007E80070DD5684661
:1055000006804580002181800421C1806B4601AA6C
:1055100002210120FFF7D0FB0446204604B070BDF5
:105520002C1B0020810010B505480C182068010ACA
:1055300009022046FDF7B6F82068002010BD0000E3
:10554000000004101FB5FDF743FC044608280BD2E9
:105550002046323069464873684604F075FE034AB7
:105560000020A100891848871FBD0000D41C00201E
:1055700070B50E46174C0105090D2181FDF73CFC65
:10558000050024D0288880041FD4E1680120887198
:10559000E068C671E16802200872E1680020487284
:1055A000E1688872E168C8720620608121460520A2
:1055B00000F096F8002801D0412070BD2888012114
:1055C000490308432880002070BD462070BD42205A
:1055D00070BD0000D41C002010B55C2200210D48D5
:1055E00001F021FA0B480B491830C8600A4A002024
:1055F0000124537B06E08200521820325477401C6D
:105600001477C0B28342F6D8FBF774FB002800D0B1
:10561000472010BDD41C0020E01E0020024610B51B
:105620000020102A03D0202A11D1032200E00422F6
:10563000CC68637924791B02E3189BB2042B07D052
:10564000052B09D0062B02D1104603F0C7FE10BD72
:105650001046FEF7D3FE10BD104600F079F810BDDD
:1056600070B500240D46082821D004DC01280FD095
:10567000042831D125E001218902401A23D01F21BD
:105680008902884228D11548007BC0071ED023E03C
:105690006878002820D1012003F034FF294601203A
:1056A000FEF7ACFE2946012000F016F914E00220B6
:1056B000FEF7A4FE2946022003F024FF294602201B
:1056C000F2E7052005E02946062002E001202946F0
:1056D000C00303F017FF0446204670BDE01E002003
:1056E00010B50C46E26801460020921C042905D042
:1056F000052903D0062901D0502010BD9170D0702B
:10570000A07A10706089000A50706089001D608165
:105710002046FBF757FB0028EFD06089001F60810F
:10572000412010BD3238000610B5810D0648074BE8
:105730000C1800219B7C608F0A465B0701D505F0A1
:10574000EBFE0020608710BDD41C0020041A00204E
:10575000F0B587B00D4603281ED004281BD1E86899
:10576000807912280DD1287C00280AD1584805904C
:105770002889FDF72DFB69463230487603A804F0EE
:105780001CFD2889FDF738FB002804D00188012280
:1057900052039143018098E02889FDF72DFB040016
:1057A00039D02088012601040029E968494A8B790B
:1057B00032DA122B32D1400433D42889C91D8646EF
:1057C000907CC0071FD00846491C4A7A0B7A120207
:1057D0001A43C61CB446037AC6791B0233434E797A
:1057E0000F7936023E430096019302926646727824
:1057F000367813024A78097812020A430178334353
:10580000704605F087FE2088012189030843208027
:10581000E868C079E07058E0132B0AD0DAB2012AA8
:105820002DD02889C9790005000DFFF7A1FE07B02A
:10583000F0BDCB79A778BB4247D1400445D5927CD7
:105840002889891D920705D54A790B7911021943D8
:1058500005F061FE20880121890388432080A1781A
:10586000491C0906090EA17000D1A670FDF7B0FA17
:1058700069463230487603A804F0E6FC25E00204CD
:1058800023D4CA79A1788A421FD142041DD50122AE
:1058900092039043491C09062080090EA17000D193
:1058A000A670FDF795FA69463230487603A804F0F1
:1058B000CBFC28890022E9680092CA7A8B7A12020E
:1058C0001A43C979002305F024FE0020AFE7000049
:1058D00030750000041A002010B5012802D00228FB
:1058E00022D11BE0114B00208200D218548F3A3293
:1058F000002C07D0401CC0B20828F5D30879002836
:1059000006D011E0C8788B78000218431080F5E7C4
:1059100010880121C9030843108005E08878497880
:1059200000020843FFF70EFE002010BDD41C00202B
:1059300010B50446FAF766FE0002E178000A09068F
:10594000084310BD70B50D46032106F09FFE0446C6
:1059500007F0EEF9194A0028114607D0FF31F5315A
:10596000FF32F832002C06DA022070BDFF31F3312D
:10597000FF32F732F6E7124B5C201B686043C01819
:1059800072B643799B0702D062B63A2070BD6B06AF
:105990000C4E5B089B1983632B0601D4132300E094
:1059A000122345791D4345711378082B02D11470D9
:1059B000008B088062B6452070BD0000FC1E0020F0
:1059C0006C03002003020200FEB5044606F03CFE14
:1059D000002C70D000286FDA4220054601904E4816
:1059E0000024009006F092FE844608208646604619
:1059F000002861DB810149480A1849480646343EBF
:105A00007082243880B20290308200274449F439F1
:105A1000C9190B46A033DD74DD77C031CD72DD715D
:105A20000198C87501980012019000982D12187401
:105A3000187708721871087500987F1C0012009082
:105A4000032FE3DB6046400103461121084334493C
:105A500054398875B070B0730125CD75F570F57344
:105A6000184602231843B07688720320F076CD7270
:105A700000210846505453185871491C0529F9DB78
:105A8000802696722649D439CB7BD3720B468C3351
:105A90001382029B5382234B9361234BD3612023B8
:105AA0009D54D075C81A8069002806D0012806D0F8
:105AB000062809D107E027E028E0182404E028247C
:105AC0000020864600E01024487B002804D00128EE
:105AD00004D0022806D103E0C02002E0344301E0F4
